:0400000045EF00F0D8
:100008003E82FACF01F0FBCF02F0E9CF03F0EACF4E
:1000180004F0E1CF05F0E2CF06F0D9CF07F0DACF50
:1000280008F0F3CF09F0F4CF0AF0F6CF0BF0F7CFD2
:100038000CF0F8CF0DF0F5CF0EF0F2BC9DA003D078
:100048009EB001EC07F00EC0F5FF0DC0F8FF0CC024
:10005800F7FF0BC0F6FF0AC0F4FF09C0F3FF08C0A2
:10006800DAFF07C0D9FF06C0E2FF05C0E1FF04C000
:10007800EAFF03C0E9FF02C0FBFF01C0FAFF3E929E
:10008800110058EF07F037EC07F0400E0001626FDF
:100098009C0E0001636F450E0001646F62C017F08B
:1000A80063C018F064C019F0000E1A6E800E1B6E43
:1000B800450E1C6EE9EC05F017C079F018C07AF00F
:1000C80019C07BF028EC07F00FC077F010C078F06B
:1000D80079C01DF07AC01EF07BC01FF00001655189
:1000E800E9EC06F00FC017F010C018F016EC07F096
:1000F80017C01AF018C01BF019C01CF0F8EC04F077
:100108001AC029F01BC02AF01CC02BF07EEC04F0AA
:1001180029C07CF02AC07DF07CC065F07DC066F007
:1001280079C01DF07AC01EF07BC01FF00001675136
:10013800E9EC06F00FC017F010C018F016EC07F045
:1001480017C01AF018C01BF019C01CF0F8EC04F026
:100158001AC029F01BC02AF01CC02BF07EEC04F05A
:1001680029C07CF02AC07DF07CC067F07DC068F0B3
:1001780079C01DF07AC01EF07BC01FF000016951E4
:10018800E9EC06F00FC017F010C018F016EC07F0F5
:1001980017C01AF018C01BF019C01CF0F8EC04F0D6
:1001A8001AC029F01BC02AF01CC02BF07EEC04F00A
:1001B80029C07CF02AC07DF07CC069F07DC06AF05F
:1001C80079C01DF07AC01EF07BC01FF000016B5192
:1001D800E9EC06F00FC017F010C018F016EC07F0A5
:1001E80017C01AF018C01BF019C01CF0F8EC04F086
:1001F8001AC029F01BC02AF01CC02BF07EEC04F0BA
:1002080029C07CF02AC07DF07CC06BF07DC06CF00A
:1002180079C01DF07AC01EF07BC01FF000016D513F
:10022800E9EC06F00FC017F010C018F016EC07F054
:1002380017C01AF018C01BF019C01CF0F8EC04F035
:100248001AC029F01BC02AF01CC02BF07EEC04F069
:1002580029C07CF02AC07DF07CC06DF07DC06EF0B6
:1002680079C01DF07AC01EF07BC01FF000016F51ED
:10027800E9EC06F00FC017F010C018F016EC07F004
:1002880017C01AF018C01BF019C01CF0F8EC04F0E5
:100298001AC029F01BC02AF01CC02BF07EEC04F019
:1002A80029C07CF02AC07DF07CC06FF07DC070F062
:1002B80079C01DF07AC01EF07BC01FF0000171519B
:1002C800E9EC06F00FC017F010C018F016EC07F0B4
:1002D80017C01AF018C01BF019C01CF0F8EC04F095
:1002E8001AC029F01BC02AF01CC02BF07EEC04F0C9
:1002F80029C07CF02AC07DF07CC071F07DC072F00E
:1003080079C01DF07AC01EF07BC01FF00001735148
:10031800E9EC06F00FC017F010C018F016EC07F063
:1003280017C01AF018C01BF019C01CF0F8EC04F044
:100338001AC029F01BC02AF01CC02BF07EEC04F078
:1003480029C07CF02AC07DF07CC073F07DC074F0B9
:1003580077C075F078C076F028EC07F00FC077F01A
:1003680010C078F0000175510001775D00017651E9
:1003780000017859D8B018D077C038F078C039F073
:10038800381E391E384A392A0001755138260001AD
:1003980076513922381E391E384A392AFF0E382438
:1003A8000001606FFF0E0FD075C038F076C039F0CD
:1003B800381E391E384A392A00017751382400017D
:1003C800606F0001785139200001616F010E000152
:1003D8007E6F340E00017F6F060E806F000E816FF6
:1003E800000E826F080E0001836F65C084F067C03D
:1003F80085F069C086F06BC087F06DC088F06FC06B
:1004080089F071C08AF073C08BF07E0E216E000EE9
:10041800226E10EC02F05CD6000E246E000E256EE3
:10042800000E266E000E276E000E236E0F0120B7F9
:1004380084D020EE01F02150D9262250DA22DECFD6
:100448000FF0DECF10F0DECF11F0DECF12F021C0BA
:10045800D9FF22C0DAFFDF50136E240E146E000E8F
:10046800156E250E166E000E176E260E186E000EEF
:10047800196E270E1A6E000E1B6EAFEC03F024C027
:1004880023FF25C024FF26C021FF27C022FF20EE1E
:1004980005F02150D9262250DA22DF500F01256FAE
:1004A80020EE06F02150D9262250DA22DF500F0123
:1004B800266F20EE07F02150D9262250DA22DF508D
:1004C8000F01276F20EE08F02150D9262250DA229A
:1004D800DF500F01286F20EE09F02150D926225055
:1004E800DA22DF500F01296F20EE0AF02150D926B9
:1004F8002250DA22DF500F012A6F20EE0BF0215034
:10050800D9262250DA22DF500F012B6F20EE0CF093
:100518002150D9262250DA22DF500F012C6F20EE0D
:100528000DF02150D9262250DA22DF500F012D6F0D
:100538000F012087010E236E12000F0110B784D01F
:1005480020EE01F02150D9262250DA22DECF0FF01A
:10055800DECF10F0DECF11F0DECF12F021C0D9FFD0
:1005680022C0DAFFDF50136E240E146E000E156ED3
:10057800250E166E000E176E260E186E000E196EDA
:10058800270E1A6E000E1B6EAFEC03F024C013FF8B
:1005980025C014FF26C011FF27C012FF20EE05F06A
:1005A8002150D9262250DA22DF500F01156F20EE94
:1005B80006F02150D9262250DA22DF500F01166F9B
:1005C80020EE07F02150D9262250DA22DF500F0101
:1005D800176F20EE08F02150D9262250DA22DF507A
:1005E8000F01186F20EE09F02150D9262250DA2287
:1005F800DF500F01196F20EE0AF02150D926225042
:10060800DA22DF500F011A6F20EE0BF02150D926A5
:100618002250DA22DF500F011B6F20EE0CF0215020
:10062800D9262250DA22DF500F011C6F20EE0DF080
:100638002150D9262250DA22DF500F011D6F0F01F9
:100648001087010E236E12000F0100B7120020EE72
:1006580001F02150D9262250DA22DECF0FF0DECF6A
:1006680010F0DECF11F0DECF12F021C0D9FF22C08A
:10067800DAFFDF50136E240E146E000E156E250E71
:10068800166E000E176E260E186E000E196E270EC7
:100698001A6E000E1B6EAFEC03F024C003FF25C0DA
:1006A80004FF26C001FF27C002FF20EE05F02150FD
:1006B800D9262250DA22DF500F01056F20EE06F00E
:1006C8002150D9262250DA22DF500F01066F20EE82
:1006D80007F02150D9262250DA22DF500F01076F88
:1006E80020EE08F02150D9262250DA22DF500F01DF
:1006F800086F20EE09F02150D9262250DA22DF5067
:100708000F01096F20EE0AF02150D9262250DA2273
:10071800DF500F010A6F20EE0BF02150D92622502E
:10072800DA22DF500F010B6F20EE0CF02150D92692
:100738002250DA22DF500F010C6F20EE0DF021500D
:10074800D9262250DA22DF500F010D6F0F010087E2
:10075800010E236E1200000E206E020E1318D8A48C
:1007680081D016C0D9FF17C0DAFF0FC0DFFF0FC056
:100778001CF010C01DF011C01EF012C01FF01DC0EB
:100788001CF01EC01DF01FC01EF01F6A1CC00FF019
:100798001DC010F01EC011F01FC012F014C0D9FF08
:1007A80015C0DAFF0FC0DFFF0FC01CF010C01DF02E
:1007B80011C01EF012C01FF01DC01CF01EC01DF09D
:1007C8001FC01EF01F6A1CC00FF01DC010F01EC015
:1007D80011F01FC012F00F50030B206E0FC01CF059
:1007E80010C01DF011C01EF012C01FF0030ED890EB
:1007F8001C361D361E361F36E82EF9D71CC00FF0E2
:100808001DC010F01EC011F01FC012F00F50E00BF9
:100818002024206E2050080F206E2050EB0B1AC0A9
:10082800D9FF1BC0DAFFDF6E0FC01CF010C01DF02F
:1008380011C01EF012C01FF01DC01CF01EC01DF01C
:100848001FC01EF01F6A1CC00FF01DC010F01EC094
:1008580011F01FC012F018C0D9FF19C0DAFF0FC07D
:10086800DFFF120014C0D9FF15C0DAFF000EDF6EDB
:1008780016C0D9FF17C0DAFF000EDF6E0FC01CF0DC
:1008880010C01DF011C01EF012C01FF0050ED89048
:100898001C361D361E361F36E82EF9D71CC00FF041
:1008A8001DC010F01EC011F01FC012F01AC0D9FFF1
:1008B8001BC0DAFF0FC0DFFF0FC01CF010C01DF017
:1008C80011C01EF012C01FF01DC01CF01EC01DF08C
:1008D8001FC01EF01F6A1CC00FF01DC010F01EC004
:1008E80011F01FC012F018C0D9FF19C0DAFF0FC0ED
:1008F800DFFF12002BC02DF02E6A2F6A2A342D3606
:1009080001E32E802D50376E3750D8A409D0000E41
:10091800296E000E2A6E000E2B6E000E2C6E120031
:10092800170E2D6E29C02EF02AC02FF02BC030F0E4
:100938002D28316E04D0D89030322F322E32312EFD
:10094800FAD72E50326E2A8EFF0E2916FF0E2A165F
:10095800000E2B162950336E2A50346E2B50356EEC
:10096800366A8E0E375E37AE16D03750800A8F0F34
:10097800D8B009D0000E296E000E2A6E000E2B6E1C
:10098800000E2C6E1200D8903632353234323332A3
:10099800373EF9D715D0170E37640FD0000E296EE1
:1009A800000E2A6E000E2B6E000E2C6E1200D890D0
:1009B800333634363536363637063750D8A4F7D777
:1009C8003250D8B408D0361E351E341E336C000E93
:1009D80034223522362233C029F034C02AF035C0FB
:1009E8002BF036C02CF012001CC020F0216A226ABD
:1009F8001B34203601E321802050236E2350D8A4D5
:100A080007D0000E1A6E000E1B6E000E1C6E120030
:100A18001FC020F0216A226A1E34203601E321809B
:100A28002050286E2850D8A407D0000E1A6E000E49
:100A38001B6E000E1C6E120028507B0F23261CC054
:100A480028F01F50281A800E28161B8E1E8EFF0EA7
:100A58001D16FF0E1E16000E1F16000E246E000E29
:100A6800256E000E266E070E276E1AA006D01D50A2
:100A780024261E5025221F502622D8901C321B32B5
:100A88001A32D8901D361E361F36272EEED7090E7D
:100A9800276E1AA006D01D5024261E5025221F504E
:100AA8002622D8901C321B321A32D8902632253290
:100AB8002432272EEED724C00FF025C010F026C010
:100AC80011F023C012F028C013F05CEC06F00FC040
:100AD8001AF010C01BF011C01CF01200800E6F6ECF
:100AE8006E50E00B800AD8A4FBD7000E726E000E81
:100AF8000E01FA6F000E0E01FB6F000E0E01F86F6B
:100B0800000E0E01F96F0E01FE690E01FF690E015C
:100B1800FC690E01FD69000E0E01E26F000E0E0168
:100B2800E36F880E0E01E06F800E0E01E16F000E7C
:100B38000E01E66F000E0E01E76FCC0E0E01E46F9A
:100B4800C00E0E01E56F000E0E01EA6F000E0E01D9
:100B5800EB6F000E0E01E86F000E0E01E96F000E3C
:100B68000E01EE6F000E0E01EF6F000E0E01EC6F1E
:100B7800000E0E01ED6F000E0E01F26F000E0E0159
:100B8800F36F000E0E01F06F000E0E01F16F000EF4
:100B98000E01F66F000E0E01F76F000E0E01F46FD6
:100BA800000E0E01F56F030E0E01436F980E0E0135
:100BB800446F010E0E01456F000E6F6E6ECF0FF081
:100BC800E00E0F16D8B41200F9D719C01DF01E6A2E
:100BD8001F6A18341D3601E31E801D50246E2450F0
:100BE800D8A407D0000E176E000E186E000E196EEE
:100BF80012001CC01DF01E6A1F6A1B341D3601E35B
:100C08001E801D50256E2550D8A407D0000E176EE3
:100C1800000E186E000E196E1200000E216E000EE6
:100C2800226E000E236E2550890F245E19C025F010
:100C38001C50251A800E2516188EFF0E1716FF0E4B
:100C48001816000E19161B8EFF0E1A16FF0E1B160D
:100C5800000E1C16180E206ED89021362236233628
:100C68001A50175C1B5018581C501958D8A007D098
:100C78001A50175E1B50185A1C50195A2180D890C8
:100C8800173618361936202EE7D721C00FF022C0A4
:100C980010F023C011F024C012F025C013F05CEC52
:100CA80006F00FC017F010C018F011C019F01200AC
:100CB8001250D8B405D00F5010101110D8A40CD071
:100CC800000E0F6E000E106E000E116E1200122A2A
:100CD800D890113210320F32000E0F14146E000E1D
:100CE8001014156EFE0E1114166E145015101610F1
:100CF800D8B40CD0ECD7122A010E0F26000E102201
:100D0800000E1122D890113210320F32000E0F143B
:100D1800146E000E1014156EFF0E1114166E14507A
:100D280015101610D8B406D0E6D71206D8900F368C
:100D38001036113610BE03D0020E1260F6D712A07C
:100D4800109ED8901232125011121350D8A4118E3E
:100D58000FC00FF010C010F011C011F01200400EBB
:100D6800CD6E000EAA6ECF68CE68CE50CFCF11F0F0
:100D7800126A11C012F0116A11103C6E12503D6EC9
:100D88009E909D80D00E0F6E0E0E106E5FEC07F0D9
:100D980064EC07F01200000E8D6E000E8C6E000ED3
:100DA800896E000E8A6E000E8B6E070E966EEF0E21
:100DB800926EFB0E936E946895680F015D697F0EC5
:100DC8000F015C6F0F015B691200136E13C011F005
:100DD80011461146C2501118830B1118C26EC280F9
:100DE800C282C2B2FED7C450126E116AC350112417
:100DF8000F6E000E1220106E12009E903D50CF6EA6
:100E08003CC0CEFF3A503B10D8B4120001D81200B3
:100E18000500FA6E3A50FD6E3B50FE6EF850FF6EBC
:100E2800FA50120017C00FF018C010F0116A8E0E99
:100E3800126E000E136E5CEC06F00FC017F010C0B7
:100E480018F011C019F01200CECF16F0CFCF15F060
:100E58001550116E1650136E11C014F013C00FF018
:100E680014C010F0120066EC07F0CFEC06F04FEC5F
:100E780007F0B3EC06F044EC07F072EC05F0120052
:100E8800010EC26E980EC16E8E0EC06E000EC46E3C
:100E9800000EC36E1200600ED36E000ED26E000EEE
:100EA8009B6E000E9A6E12003E903E92000EF86EF7
:100EB800000147EF00F00FC03AF010C03BF01200FD
:0A0EC800CD801200D09E120012002F
:020000040020DA
:08000000FFFFFFFFFFFFFFFF00
:020000040030CA
:0E00000015137F7CFF8991FF0FC00FE00F40AA
:00000001FF
