:0400000045EF00F0D8
:100008004F82FACF01F0FBCF02F0E9CF03F0EACF3D
:1000180004F0E1CF05F0E2CF06F0D9CF07F0DACF50
:1000280008F0F3CF09F0F4CF0AF0F6CF0BF0F7CFD2
:100038000CF0F8CF0DF0F5CF0EF0F2BC9DA003D078
:100048009EB0A8EC09F00EC0F5FF0DC0F8FF0CC07B
:10005800F7FF0BC0F6FF0AC0F4FF09C0F3FF08C0A2
:10006800DAFF07C0D9FF06C0E2FF05C0E1FF04C000
:10007800EAFF03C0E9FF02C0FBFF01C0FAFF4F928D
:10008800110002EF0AF0E1EC09F0400E0001766F72
:100098009C0E0001776F450E0001786F76C038F02E
:1000A80077C039F078C03AF0000E3B6E800E3C6E97
:1000B800450E3D6E90EC08F038C073F039C074F00E
:1000C8003AC075F073C01DF074C01EF075C01FF003
:1000D80000016B5190EC09F00FC017F010C018F038
:1000E800BDEC09F017C01AF018C01BF019C01CF0BD
:1000F8009FEC07F01AC047F01BC048F01CC049F03D
:1001080008EC07F047C079F048C07AF0000E3B6E63
:10011800200E3C6E420E3D6ECD0E1D6ECC0E1E6E38
:100128003D0E1F6E76C01AF077C01BF078C01CF029
:100138009FEC07F01AC029F01BC02AF01CC02BF056
:10014800CFEC09F029C02FF02AC030F02BC031F0D5
:1001580079C017F07AC018F0BDEC09F017C02CF080
:1001680018C02DF019C02EF063EC05F02CC038F043
:100178002DC039F02EC03AF090EC08F038C047F0A6
:1001880039C048F03AC049F008EC07F04750000180
:100198006B6F73C01DF074C01EF075C01FF00001B6
:1001A8006C5190EC09F00FC017F010C018F0BDECBE
:1001B80009F017C01AF018C01BF019C01CF09FEC0A
:1001C80007F01AC047F01BC048F01CC049F008EC03
:1001D80007F047C079F048C07AF0000E3B6E200E59
:1001E8003C6E420E3D6ECD0E1D6ECC0E1E6E3D0E4B
:1001F8001F6E76C01AF077C01BF078C01CF09FEC19
:1002080007F01AC029F01BC02AF01CC02BF0CFEC55
:1002180009F029C02FF02AC030F02BC031F079C086
:1002280017F07AC018F0BDEC09F017C02CF018C010
:100238002DF019C02EF063EC05F02CC038F02DC05D
:1002480039F02EC03AF090EC08F038C047F039C0C9
:1002580048F03AC049F008EC07F0475000016C6FCD
:1002680073C01DF074C01EF075C01FF000017251FC
:1002780090EC09F00FC017F010C018F0BDEC09F0B1
:1002880017C01AF018C01BF019C01CF09FEC07F03B
:100298001AC047F01BC048F01CC049F008EC07F032
:1002A80047C079F048C07AF0330E3B6ED30E3C6EEF
:1002B800400E3D6E000E1D6E000E1E6E3F0E1F6E30
:1002C80076C01AF077C01BF078C01CF09FEC07F0DE
:1002D8001AC029F01BC02AF01CC02BF0CFEC09F083
:1002E80029C02FF02AC030F02BC031F079C017F0A8
:1002F8007AC018F0BDEC09F017C02CF018C02DF02A
:1003080019C02EF063EC05F02CC038F02DC039F080
:100318002EC03AF090EC08F038C047F039C048F0E9
:100328003AC049F008EC07F047500001726F73C0FB
:100338001DF074C01EF075C01FF000016D5190ECE7
:1003480009F00FC017F010C018F0BDEC09F017C085
:100358001AF018C01BF019C01CF09FEC07F01AC067
:1003680047F01BC048F01CC049F008EC07F047C034
:1003780079F048C07AF0000E3B6EA00E3C6E410E3C
:100388003D6ECD0E1D6ECC0E1E6E3D0E1F6E76C0E0
:100398001AF077C01BF078C01CF09FEC07F01AC069
:1003A80029F01BC02AF01CC02BF0CFEC09F029C0A3
:1003B8002FF02AC030F02BC031F079C017F07AC086
:1003C80018F0BDEC09F017C02CF018C02DF019C0BA
:1003D8002EF063EC05F02CC038F02DC039F02EC09B
:1003E8003AF090EC08F038C047F039C048F03AC00D
:1003F80049F008EC07F0475000016D6F73C01DF01D
:1004080074C01EF075C01FF000016E5190EC09F029
:100418000FC017F010C018F0BDEC09F017C01AF0A3
:1004280018C01BF019C01CF09FEC07F01AC047F069
:100438001BC048F01CC049F008EC07F047C079F031
:1004480048C07AF0000E3B6E200E3C6E420E3D6EA8
:10045800CD0E1D6ECC0E1E6E3D0E1F6E76C01AF0B0
:1004680077C01BF078C01CF09FEC07F01AC029F089
:100478001BC02AF01CC02BF0CFEC09F029C02FF0CC
:100488002AC030F02BC031F079C017F07AC018F0CC
:10049800BDEC09F017C02CF018C02DF019C02EF0D3
:1004A80063EC05F02CC038F02DC039F02EC03AF0BE
:1004B80090EC08F038C047F039C048F03AC049F02D
:1004C80008EC07F0475000016E6F73C01DF074C050
:1004D8001EF075C01FF000016F5190EC09F00FC0BD
:1004E80017F010C018F0BDEC09F017C01AF018C0CA
:1004F8001BF019C01CF09FEC07F01AC047F01BC096
:1005080048F01CC049F008EC07F047C079F048C033
:100518007AF0000E3B6E200E3C6E420E3D6ECD0E04
:100528001D6ECC0E1E6E3D0E1F6E76C01AF077C083
:100538001BF078C01CF09FEC07F01AC029F01BC014
:100548002AF01CC02BF0CFEC09F029C02FF02AC0EC
:1005580030F02BC031F079C017F07AC018F0BDEC3C
:1005680009F017C02CF018C02DF019C02EF063EC5C
:1005780005F02CC038F02DC039F02EC03AF090ECC0
:1005880008F038C047F039C048F03AC049F008ECE4
:1005980007F0475000016F6F73C01DF074C01EF064
:1005A80075C01FF00001705190EC09F00FC017F0F2
:1005B80010C018F0BDEC09F017C01AF018C01BF0F5
:1005C80019C01CF09FEC07F01AC047F01BC048F098
:1005D8001CC049F008EC07F047C079F048C07AF031
:1005E800000E3B6E200E3C6E420E3D6ECD0E1D6E13
:1005F800CC0E1E6E3D0E1F6E76C01AF077C01BF033
:1006080078C01CF09FEC07F01AC029F01BC02AF034
:100618001CC02BF0CFEC09F029C02FF02AC030F015
:100628002BC031F079C017F07AC018F0BDEC09F092
:1006380017C02CF018C02DF019C02EF063EC05F08F
:100648002CC038F02DC039F02EC03AF090EC08F0EC
:1006580038C047F039C048F03AC049F008EC07F014
:1006680047500001706F73C01DF074C01EF075C054
:100678001FF00001715190EC09F00FC017F010C085
:1006880018F0BDEC09F017C01AF018C01BF019C01B
:100698001CF09FEC07F01AC047F01BC048F01CC0C4
:1006A80049F008EC07F047C079F048C07AF0000E2E
:1006B8003B6E200E3C6E420E3D6ECD0E1D6ECC0E76
:1006C8001E6E3D0E1F6E76C01AF077C01BF078C004
:1006D8001CF09FEC07F01AC029F01BC02AF01CC0C0
:1006E8002BF0CFEC09F029C02FF02AC030F02BC036
:1006F80031F079C017F07AC018F0BDEC09F017C0D6
:100708002CF018C02DF019C02EF063EC05F02CC0A9
:1007180038F02DC039F02EC03AF090EC08F038C00F
:1007280047F039C048F03AC049F008EC07F04750A4
:100738000001716F010E00017B6F340E00017C6FA8
:10074800060E7D6F000E7E6F000E7F6F080E000193
:10075800806F6BC081F06CC082F072C083F06DC096
:1007680084F06EC085F06FC086F070C087F071C0ED
:1007780088F07B0E216E000E226EC4EC03F0A2D42A
:10078800000E246E000E256E000E266E000E276EDB
:10079800000E236E0F0120B784D020EE01F0215007
:1007A800D9262250DA22DECF0FF0DECF10F0DECFCE
:1007B80011F0DECF12F021C0D9FF22C0DAFFDF50DE
:1007C800136E240E146E000E156E250E166E000E96
:1007D800176E260E186E000E196E270E1A6E000E72
:1007E8001B6E39EC06F024C023FF25C024FF26C069
:1007F80021FF27C022FF20EE05F02150D9262250E4
:10080800DA22DF500F01256F20EE06F02150D9269D
:100818002250DA22DF500F01266F20EE07F0215018
:10082800D9262250DA22DF500F01276F20EE08F078
:100838002150D9262250DA22DF500F01286F20EEEE
:1008480009F02150D9262250DA22DF500F01296FF2
:1008580020EE0AF02150D9262250DA22DF500F016B
:100868002A6F20EE0BF02150D9262250DA22DF50D1
:100878000F012B6F20EE0CF02150D9262250DA22DE
:10088800DF500F012C6F20EE0DF02150D926225099
:10089800DA22DF500F012D6F0F012087010E236E22
:1008A80012000F0110B784D020EE01F02150D92694
:1008B8002250DA22DECF0FF0DECF10F0DECF11F0BB
:1008C800DECF12F021C0D9FF22C0DAFFDF50136E4D
:1008D800240E146E000E156E250E166E000E176E81
:1008E800260E186E000E196E270E1A6E000E1B6E5D
:1008F80039EC06F024C013FF25C014FF26C011FFF1
:1009080027C012FF20EE05F02150D9262250DA2206
:10091800DF500F01156F20EE06F02150D926225026
:10092800DA22DF500F01166F20EE07F02150D9268A
:100938002250DA22DF500F01176F20EE08F0215005
:10094800D9262250DA22DF500F01186F20EE09F065
:100958002150D9262250DA22DF500F01196F20EEDC
:100968000AF02150D9262250DA22DF500F011A6FDF
:1009780020EE0BF02150D9262250DA22DF500F0149
:100988001B6F20EE0CF02150D9262250DA22DF50BE
:100998000F011C6F20EE0DF02150D9262250DA22CB
:1009A800DF500F011D6F0F011087010E236E12001B
:1009B8000F0100B7120020EE01F02150D926225075
:1009C800DA22DECF0FF0DECF10F0DECF11F0DECF6F
:1009D80012F021C0D9FF22C0DAFFDF50136E240EB7
:1009E800146E000E156E250E166E000E176E260E6E
:1009F800186E000E196E270E1A6E000E1B6E39EC5B
:100A080006F024C003FF25C004FF26C001FF27C04D
:100A180002FF20EE05F02150D9262250DA22DF50BD
:100A28000F01056F20EE06F02150D9262250DA2258
:100A3800DF500F01066F20EE07F02150D926225013
:100A4800DA22DF500F01076F20EE08F02150D92677
:100A58002250DA22DF500F01086F20EE09F02150F2
:100A6800D9262250DA22DF500F01096F20EE0AF052
:100A78002150D9262250DA22DF500F010A6F20EECA
:100A88000BF02150D9262250DA22DF500F010B6FCC
:100A980020EE0CF02150D9262250DA22DF500F0127
:100AA8000C6F20EE0DF02150D9262250DA22DF50AB
:100AB8000F010D6F0F010087010E236E12002EC06B
:100AC80032F0336A346A2D34323601E333803250DF
:100AD800376E31C032F0336A346A3034323601E36B
:100AE80033803250366E3750D8B40BD03650375C1E
:100AF800D8B00ED0375000083624326E180E326443
:100B080007D02FC02CF030C02DF031C02EF01200CD
:100B18003650D8B40BD03750365CD8B00ED03650DB
:100B280000083724326E180E326407D02CC02CF01F
:100B38002DC02DF02EC02EF01200060E356E2EBEE2
:100B4800358E31BE358C2D8EFF0E2C16FF0E2D16D0
:100B5800000E2E16308EFF0E2F16FF0E3016000ECA
:100B680031163650375CD8B01BD0D8902F36303677
:100B78003136360637503618D8B40DD0350635C05C
:100B880032F0070E3216D8B406D0EFD7D8902E32EE
:100B98002D322C32372A36503718D8B41FD0F6D712
:100BA8003750365CD8B01AD0D8902C362D362E3621
:100BB800370637503618D8B40DD0350635C032F060
:100BC800070E3216D8B406D0EFD7D890313230326B
:100BD8002F32362A36503718D8A4F7D735AE0CD06E
:100BE800FF0E2C1AFF0E2D1AFF0E2E1A010E2C26A0
:100BF800000E2D22000E2E2235AC0CD0FF0E2F1A1F
:100C0800FF0E301AFF0E311A010E2F26000E302269
:100C1800000E3122000E356E2C502F262D5030221A
:100C28002E50312231AE0ED0FF0E2F1AFF0E301A81
:100C3800FF0E311A010E2F26000E3022000E31222F
:100C4800010E356E2FC00FF030C010F031C011F01A
:100C580037C012F035C013F003EC09F00FC02CF0C8
:100C680010C02DF011C02EF01200000E206E020EE2
:100C78001318D8A481D016C0D9FF17C0DAFF0FC047
:100C8800DFFF0FC01CF010C01DF011C01EF012C015
:100C98001FF01DC01CF01EC01DF01FC01EF01F6AF3
:100CA8001CC00FF01DC010F01EC011F01FC012F0C4
:100CB80014C0D9FF15C0DAFF0FC0DFFF0FC01CF04A
:100CC80010C01DF011C01EF012C01FF01DC01CF096
:100CD8001EC01DF01FC01EF01F6A1CC00FF01DC0F3
:100CE80010F01EC011F01FC012F00F50030B206E41
:100CF8000FC01CF010C01DF011C01EF012C01FF074
:100D0800030ED8901C361D361E361F36E82EF9D72E
:100D18001CC00FF01DC010F01EC011F01FC012F053
:100D28000F50E00B2024206E2050080F206E20501A
:100D3800EB0B1AC0D9FF1BC0DAFFDF6E0FC01CF027
:100D480010C01DF011C01EF012C01FF01DC01CF015
:100D58001EC01DF01FC01EF01F6A1CC00FF01DC072
:100D680010F01EC011F01FC012F018C0D9FF19C032
:100D7800DAFF0FC0DFFF120014C0D9FF15C0DAFF79
:100D8800000EDF6E16C0D9FF17C0DAFF000EDF6E47
:100D98000FC01CF010C01DF011C01EF012C01FF0D3
:100DA800050ED8901C361D361E361F36E82EF9D78C
:100DB8001CC00FF01DC010F01EC011F01FC012F0B3
:100DC8001AC0D9FF1BC0DAFF0FC0DFFF0FC01CF02D
:100DD80010C01DF011C01EF012C01FF01DC01CF085
:100DE8001EC01DF01FC01EF01F6A1CC00FF01DC0E2
:100DF80010F01EC011F01FC012F018C0D9FF19C0A2
:100E0800DAFF0FC0DFFF120049C060F00001616B1C
:100E1800626B48340001603701E361810001605171
:100E280000016A6F00016A51D8A409D0000E476E0C
:100E3800000E486E000E496E000E4A6E1200170E24
:100E48000001606F47C061F048C062F049C063F0BC
:100E5800000160290001646F05D00001D890633358
:100E6800623361330001642FF8D70001615100013A
:100E7800656F488EFF0E4716FF0E4816000E49167E
:100E880047500001666F48500001676F49500001E4
:100E9800686F0001696B8E0E00016A5F00016AAF1E
:100EA80019D000016A51800A8F0FD8B009D0000EFE
:100EB800476E000E486E000E496E000E4A6E120014
:100EC8000001D890693368336733663300016A3F9D
:100ED800F7D71AD0170E00016A6511D0000E476EB9
:100EE800000E486E000E496E000E4A6E1200000198
:100EF800D890663767376837693700016A07000195
:100F08006A510001D8A4F3D7000165510001D8B493
:100F180009D00001691F681F671F666D000E6723EF
:100F28006823692366C047F067C048F068C049F085
:100F380069C04AF012001CC020F0216A226A1B34E2
:100F4800203601E321802050236E2350D8A407D0F7
:100F5800000E1A6E000E1B6E000E1C6E12001FC0D3
:100F680020F0216A226A1E34203601E321802050B5
:100F7800286E2850D8A407D0000E1A6E000E1B6EDB
:100F8800000E1C6E120028507B0F23261CC028F070
:100F98001F50281A800E28161B8E1E8EFF0E1D1637
:100FA800FF0E1E16000E1F16000E246E000E256E74
:100FB800000E266E070E276E1AA006D01D50242696
:100FC8001E5025221F502622D8901C321B321A325E
:100FD800D8901D361E361F36272EEED7090E276EDF
:100FE8001AA006D01D5024261E5025221F50262246
:100FF800D8901C321B321A32D8902632253224322D
:10100800272EEED724C00FF025C010F026C011F00F
:1010180023C012F028C013F003EC09F00FC01AF037
:1010280010C01BF011C01CF01200800E6F6E6E50C5
:10103800E00B800AD8A4FBD7000E726E000E0E01DA
:10104800FA6F000E0E01FB6F000E0E01F86F000E16
:101058000E01F96F0E01FE690E01FF690E01FC69B0
:101068000E01FD69000E0E01E26F000E0E01E36F26
:10107800880E0E01E06F800E0E01E16F000E0E016A
:10108800E66F000E0E01E76FCC0E0E01E46FC00E86
:101098000E01E56F000E0E01EA6F000E0E01EB6FF8
:1010A800000E0E01E86F000E0E01E96F000E0E0132
:1010B800EE6F000E0E01EF6F000E0E01EC6F000ECA
:1010C8000E01ED6F000E0E01F26F000E0E01F36FB0
:1010D800000E0E01F06F000E0E01F16F000E0E01F2
:1010E800F66F000E0E01F76F000E0E01F46F000E82
:1010F8000E01F56F030E0E01436F980E0E01446F3B
:10110800010E0E01456F000E6F6E6ECF0FF0E00EF0
:101118000F16D8B41200F9D73AC03EF03F6A406AB9
:1011280039343E3601E33F803E50456E4550D8A4E1
:1011380007D0000E386E000E396E000E3A6E12009F
:101148003DC03EF03F6A406A3C343E3601E33F8092
:101158003E50466E4650D8A407D0000E386E000E9A
:10116800396E000E3A6E1200000E426E000E436E8B
:10117800000E446E4650890F455E3AC046F03D5019
:10118800461A800E4616398EFF0E3816FF0E39168F
:10119800000E3A163C8EFF0E3B16FF0E3C16000E54
:1011A8003D16180E416ED8904236433644363B50B1
:1011B800385C3C5039583D503A58D8A007D03B507D
:1011C800385E3C50395A3D503A5A4280D8903836A9
:1011D80039363A36412EE7D742C00FF043C010F0F7
:1011E80044C011F045C012F046C013F003EC09F0FA
:1011F8000FC038F010C039F011C03AF01200125088
:10120800D8B405D00F5010101110D8A40CD0000E6F
:101218000F6E000E106E000E116E1200122AD8907A
:10122800113210320F32000E0F14146E000E10140B
:10123800156EFE0E1114166E145015101610D8B433
:101248000CD0ECD7122A010E0F26000E1022000E29
:101258001122D890113210320F32000E0F14146E72
:10126800000E1014156EFF0E1114166E1450151082
:101278001610D8B406D0E6D71206D8900F36103616
:10128800113610BE03D0020E1260F6D712A0109EBF
:10129800D8901232125011121350D8A4118E0FC0C8
:1012A8000FF010C010F011C011F01200400ECD6EFA
:1012B800000EAA6ECF68CE68CE50CFCF11F0126A5A
:1012C80011C012F0116A11104D6E12504E6E9E90A0
:1012D8009D80240E0F6E140E106E09EC0AF00EECB1
:1012E8000AF01200000E8D6E000E8C6E000E896ED4
:1012F800000E8A6E000E8B6E070E966EEF0E926EC3
:10130800FB0E936E946895680F015D697F0E0F015F
:101318005C6F0F015B691200136E13C011F0114668
:101328001146C2501118830B1118C26EC280C282B6
:10133800C2B2FED7C450126E116AC35011240F6E88
:10134800000E1220106E12009E904E50CF6E4DC0AF
:10135800CEFF4B504C10D8B4120001D81200050033
:10136800FA6E4B50FD6E4C50FE6EF850FF6EFA5000
:10137800120017C00FF018C010F0116A8E0E126E0E
:10138800000E136E03EC09F00FC017F010C018F030
:1013980011C019F0120029502A102B10D8B406D009
:1013A800000E291A000E2A1A800E2B1A29C029F0BD
:1013B8002AC02AF02BC02BF0120010EC0AF076ECB1
:1013C80009F0F9EC09F05AEC09F0EEEC09F019EC27
:1013D80008F01200010EC26E980EC16E8E0EC06E1D
:1013E800000EC46E000EC36E1200600ED36E000EA7
:1013F800D26E000E9B6E000E9A6E12004F904F92A6
:10140800000EF86E000147EF00F00FC04BF010C05F
:0E1418004CF01200CD801200D09E1200120087
:020000040020DA
:08000000FFFFFFFFFFFFFFFF00
:020000040030CA
:0E00000015137F7CFF8991FF0FC00FE00F40AA
:00000001FF
