:0400000045EF00F0D8
:100008001782FACF01F0FBCF02F0E9CF03F0EACF75
:1000180004F0E1CF05F0E2CF06F0D9CF07F0DACF50
:1000280008F0F3CF09F0F4CF0AF0F6CF0BF0F7CFD2
:100038000CF0F8CF0DF0F5CF0EF0F2BC9DA003D078
:100048009EB0F5EC00F00EC0F5FF0DC0F8FF0CC037
:10005800F7FF0BC0F6FF0AC0F4FF09C0F3FF08C0A2
:10006800DAFF07C0D9FF06C0E2FF05C0E1FF04C000
:10007800EAFF03C0E9FF02C0FBFF01C0FAFF1792C5
:1000880011002BEF01F0800E6F6E6E50E00B800AAE
:10009800D8A4FBD7000E726E000E0E01FA6F000E88
:1000A8000E01FB6F000E0E01F86F000E0E01F96FC6
:1000B8000E01FE690E01FF690E01FC690E01FD6962
:1000C800000E0E01E26F000E0E01E36F880E0E01A6
:1000D800E06F800E0E01E16F000E0E01E66F000E5C
:1000E8000E01E76FCC0E0E01E46FC00E0E01E56F36
:1000F800000E0E01EA6F000E0E01EB6F000E0E01EE
:10010800E86F000E0E01E96F000E0E01EE6F000E93
:100118000E01EF6F000E0E01EC6F000E0E01ED6F79
:10012800000E0E01F26F000E0E01F36F000E0E01AD
:10013800F06F000E0E01F16F000E0E01F66F000E4B
:100148000E01F76F000E0E01F46F000E0E01F56F31
:10015800030E0E01436F980E0E01446F010E0E013F
:10016800456F000E6F6E6ECF0FF0E00E0F16D8B40D
:100178001200F9D7400ECD6E000EAA6ECF68FC0EA5
:10018800CE6ECE50CFCF11F0126A11C012F0116AA4
:100198001110156E1250166E9E909D807C0E0F6E7B
:1001A800020E106E32EC01F03AEC01F01200000E73
:1001B8008D6E000E8C6E000E896E000E8A6E000E1B
:1001C8008B6E070E966EEF0E926EFB0E936E946812
:1001D80095680F015D697F0E0F015C6F0F015B6908
:1001E80012009E901650CF6E15C0CEFF13501410FB
:1001F800D8B4120001D812000500FA6E1350FD6E33
:100208001450FE6EF850FF6EFA5012003CEC01F0EC
:10021800DBEC00F022EC01F0BEEC00F017EC01F092
:1002280047EC00F01200010EC26E980EC16E8E0EE1
:10023800C06E000EC46E000EC36E1200600ED36E48
:10024800000ED26E000E9B6E000E9A6E1200179072
:100258001792000EF86E000137EF01F00FC013F08F
:1002680010C014F012000AEC01F0FFD7CD80120084
:06027800D09E12001200EE
:020000040020DA
:08000000FFFFFFFFFFFFFFFF00
:020000040030CA
:0E00000015137F7CFF8991FF0FC00FE00F40AA
:00000001FF
